{
  "contractName": "ECA",
  "abi": [
    {
      "inputs": [
        {
          "internalType": "address[]",
          "name": "_ecaAccounts",
          "type": "address[]"
        }
      ],
      "stateMutability": "nonpayable",
      "type": "constructor"
    },
    {
      "inputs": [
        {
          "internalType": "uint256",
          "name": "",
          "type": "uint256"
        }
      ],
      "name": "Elections",
      "outputs": [
        {
          "internalType": "address",
          "name": "",
          "type": "address"
        }
      ],
      "stateMutability": "view",
      "type": "function"
    },
    {
      "inputs": [
        {
          "internalType": "uint256",
          "name": "",
          "type": "uint256"
        }
      ],
      "name": "votingBooth",
      "outputs": [
        {
          "internalType": "address",
          "name": "",
          "type": "address"
        }
      ],
      "stateMutability": "view",
      "type": "function"
    },
    {
      "inputs": [],
      "name": "isECA",
      "outputs": [
        {
          "internalType": "bool",
          "name": "",
          "type": "bool"
        }
      ],
      "stateMutability": "view",
      "type": "function"
    },
    {
      "inputs": [
        {
          "internalType": "address",
          "name": "_ecaAddress",
          "type": "address"
        }
      ],
      "name": "removeECA",
      "outputs": [],
      "stateMutability": "nonpayable",
      "type": "function"
    },
    {
      "inputs": [
        {
          "internalType": "address",
          "name": "_eca",
          "type": "address"
        }
      ],
      "name": "addECA",
      "outputs": [],
      "stateMutability": "nonpayable",
      "type": "function"
    },
    {
      "inputs": [
        {
          "internalType": "address",
          "name": "_to",
          "type": "address"
        }
      ],
      "name": "ecaTransferTO",
      "outputs": [],
      "stateMutability": "nonpayable",
      "type": "function"
    },
    {
      "inputs": [],
      "name": "createElection",
      "outputs": [],
      "stateMutability": "nonpayable",
      "type": "function"
    }
  ],
  "bytecode": "0x60806040523480156200001157600080fd5b5060405162001e7c38038062001e7c83398181016040528101906200003791906200031b565b60005b8151811015620000ce5760016000808484815181106200005f576200005e6200036c565b5b602002602001015173ffffffffffffffffffffffffffffffffffffffff1673ffffffffffffffffffffffffffffffffffffffff16815260200190815260200160002060006101000a81548160ff0219169083151502179055508080620000c590620003d4565b9150506200003a565b5060016000803373ffffffffffffffffffffffffffffffffffffffff1673ffffffffffffffffffffffffffffffffffffffff16815260200190815260200160002060006101000a81548160ff0219169083151502179055505062000421565b6000604051905090565b600080fd5b600080fd5b600080fd5b6000601f19601f8301169050919050565b7f4e487b7100000000000000000000000000000000000000000000000000000000600052604160045260246000fd5b620001918262000146565b810181811067ffffffffffffffff82111715620001b357620001b262000157565b5b80604052505050565b6000620001c86200012d565b9050620001d6828262000186565b919050565b600067ffffffffffffffff821115620001f957620001f862000157565b5b602082029050602081019050919050565b600080fd5b600073ffffffffffffffffffffffffffffffffffffffff82169050919050565b60006200023c826200020f565b9050919050565b6200024e816200022f565b81146200025a57600080fd5b50565b6000815190506200026e8162000243565b92915050565b60006200028b6200028584620001db565b620001bc565b90508083825260208201905060208402830185811115620002b157620002b06200020a565b5b835b81811015620002de5780620002c988826200025d565b845260208401935050602081019050620002b3565b5050509392505050565b600082601f8301126200030057620002ff62000141565b5b81516200031284826020860162000274565b91505092915050565b60006020828403121562000334576200033362000137565b5b600082015167ffffffffffffffff8111156200035557620003546200013c565b5b6200036384828501620002e8565b91505092915050565b7f4e487b7100000000000000000000000000000000000000000000000000000000600052603260045260246000fd5b7f4e487b7100000000000000000000000000000000000000000000000000000000600052601160045260246000fd5b6000819050919050565b6000620003e182620003ca565b91507fffffffffffffffffffffffffffffffffffffffffffffffffffffffffffffffff82036200041657620004156200039b565b5b600182019050919050565b611a4b80620004316000396000f3fe608060405234801561001057600080fd5b506004361061007d5760003560e01c806346d8573b1161005b57806346d8573b146100d85780634f42a54a146100f45780637eb9e952146101245780639800637c146101405761007d565b80631e9598e21461008257806324c2286c146100b2578063363c045d146100bc575b600080fd5b61009c60048036038101906100979190610579565b61015e565b6040516100a991906105e7565b60405180910390f35b6100ba61019d565b005b6100d660048036038101906100d1919061062e565b610277565b005b6100f260048036038101906100ed919061062e565b610366565b005b61010e60048036038101906101099190610579565b6103fe565b60405161011b91906105e7565b60405180910390f35b61013e6004803603810190610139919061062e565b61043d565b005b6101486104de565b6040516101559190610676565b60405180910390f35b6002818154811061016e57600080fd5b906000526020600020016000915054906101000a900473ffffffffffffffffffffffffffffffffffffffff1681565b6101a56104de565b6101e4576040517f08c379a00000000000000000000000000000000000000000000000000000000081526004016101db906106ee565b60405180910390fd5b60006040516101f290610531565b604051809103906000f08015801561020e573d6000803e3d6000fd5b5090506002819080600181540180825580915050600190039060005260206000200160009091909190916101000a81548173ffffffffffffffffffffffffffffffffffffffff021916908373ffffffffffffffffffffffffffffffffffffffff16021790555050565b61027f6104de565b6102be576040517f08c379a00000000000000000000000000000000000000000000000000000000081526004016102b5906106ee565b60405180910390fd5b60016000808373ffffffffffffffffffffffffffffffffffffffff1673ffffffffffffffffffffffffffffffffffffffff16815260200190815260200160002060006101000a81548160ff0219169083151502179055506000803373ffffffffffffffffffffffffffffffffffffffff1673ffffffffffffffffffffffffffffffffffffffff16815260200190815260200160002060006101000a81549060ff021916905550565b61036e6104de565b6103ad576040517f08c379a00000000000000000000000000000000000000000000000000000000081526004016103a4906106ee565b60405180910390fd5b6000808273ffffffffffffffffffffffffffffffffffffffff1673ffffffffffffffffffffffffffffffffffffffff16815260200190815260200160002060006101000a81549060ff021916905550565b6001818154811061040e57600080fd5b906000526020600020016000915054906101000a900473ffffffffffffffffffffffffffffffffffffffff1681565b6104456104de565b610484576040517f08c379a000000000000000000000000000000000000000000000000000000000815260040161047b906106ee565b60405180910390fd5b60016000808373ffffffffffffffffffffffffffffffffffffffff1673ffffffffffffffffffffffffffffffffffffffff16815260200190815260200160002060006101000a81548160ff02191690831515021790555050565b60008060003373ffffffffffffffffffffffffffffffffffffffff1673ffffffffffffffffffffffffffffffffffffffff16815260200190815260200160002060009054906101000a900460ff16905090565b6113078061070f83390190565b600080fd5b6000819050919050565b61055681610543565b811461056157600080fd5b50565b6000813590506105738161054d565b92915050565b60006020828403121561058f5761058e61053e565b5b600061059d84828501610564565b91505092915050565b600073ffffffffffffffffffffffffffffffffffffffff82169050919050565b60006105d1826105a6565b9050919050565b6105e1816105c6565b82525050565b60006020820190506105fc60008301846105d8565b92915050565b61060b816105c6565b811461061657600080fd5b50565b60008135905061062881610602565b92915050565b6000602082840312156106445761064361053e565b5b600061065284828501610619565b91505092915050565b60008115159050919050565b6106708161065b565b82525050565b600060208201905061068b6000830184610667565b92915050565b600082825260208201905092915050565b7f6f6e6c792061636365737369626c6520746f2065636100000000000000000000600082015250565b60006106d8601683610691565b91506106e3826106a2565b602082019050919050565b60006020820190508181036000830152610707816106cb565b905091905056fe608060405234801561001057600080fd5b5033600460006101000a81548173ffffffffffffffffffffffffffffffffffffffff021916908373ffffffffffffffffffffffffffffffffffffffff16021790555060008060006101000a81548160ff0219169083600381111561007757610076610081565b5b02179055506100b0565b7f4e487b7100000000000000000000000000000000000000000000000000000000600052602160045260246000fd5b611248806100bf6000396000f3fe608060405234801561001057600080fd5b506004361061007d5760003560e01c806326541b561161005b57806326541b56146100da578063290e9212146100f6578063a3ec138d14610129578063c7bedfa0146101595761007d565b80630121b93f1461008257806306a49fce1461009e57806314034bd2146100bc575b600080fd5b61009c60048036038101906100979190610a75565b610163565b005b6100a66103b0565b6040516100b39190610bb4565b60405180910390f35b6100c4610513565b6040516100d19190610bb4565b60405180910390f35b6100f460048036038101906100ef9190610d0b565b6106d7565b005b610110600480360381019061010b9190610a75565b6107fe565b6040516101209493929190610ddc565b60405180910390f35b610143600480360381019061013e9190610e8d565b61093e565b6040516101509190610ed5565b60405180910390f35b61016161095e565b005b6001600381111561017757610176610ef0565b5b60008054906101000a900460ff16600381111561019757610196610ef0565b5b106101d7576040517f08c379a00000000000000000000000000000000000000000000000000000000081526004016101ce90610f6b565b60405180910390fd5b600160038111156101eb576101ea610ef0565b5b60008054906101000a900460ff16600381111561020b5761020a610ef0565b5b1161024b576040517f08c379a000000000000000000000000000000000000000000000000000000000815260040161024290610fd7565b60405180910390fd5b600360003373ffffffffffffffffffffffffffffffffffffffff1673ffffffffffffffffffffffffffffffffffffffff16815260200190815260200160002060009054906101000a900460ff16156102d8576040517f08c379a00000000000000000000000000000000000000000000000000000000081526004016102cf90611043565b60405180910390fd5b600154811080156102ea575060008110155b610329576040517f08c379a0000000000000000000000000000000000000000000000000000000008152600401610320906110af565b60405180910390fd5b6001600360003373ffffffffffffffffffffffffffffffffffffffff1673ffffffffffffffffffffffffffffffffffffffff16815260200190815260200160002060006101000a81548160ff0219169083151502179055506002600082815260200190815260200160002060020160008154809291906103a8906110fe565b919050555050565b6103b8610960565b600260008081526020019081526020016000206040518060800160405290816000820180546103e690611175565b80601f016020809104026020016040519081016040528092919081815260200182805461041290611175565b801561045f5780601f106104345761010080835404028352916020019161045f565b820191906000526020600020905b81548152906001019060200180831161044257829003601f168201915b5050505050815260200160018201805461047890611175565b80601f01602080910402602001604051908101604052809291908181526020018280546104a490611175565b80156104f15780601f106104c6576101008083540402835291602001916104f1565b820191906000526020600020905b8154815290600101906020018083116104d457829003601f168201915b5050505050815260200160028201548152602001600382015481525050905090565b61051b610960565b60008060005b60015481101561057957816002600083815260200190815260200160002060020154111561056657600260008281526020019081526020016000206002015491508092505b8080610571906110fe565b915050610521565b50600260008381526020019081526020016000206040518060800160405290816000820180546105a890611175565b80601f01602080910402602001604051908101604052809291908181526020018280546105d490611175565b80156106215780601f106105f657610100808354040283529160200191610621565b820191906000526020600020905b81548152906001019060200180831161060457829003601f168201915b5050505050815260200160018201805461063a90611175565b80601f016020809104026020016040519081016040528092919081815260200182805461066690611175565b80156106b35780601f10610688576101008083540402835291602001916106b3565b820191906000526020600020905b81548152906001019060200180831161069657829003601f168201915b50505050508152602001600282015481526020016003820154815250509250505090565b600060038111156106eb576106ea610ef0565b5b60008054906101000a900460ff16600381111561070b5761070a610ef0565b5b1461074b576040517f08c379a0000000000000000000000000000000000000000000000000000000008152600401610742906111f2565b60405180910390fd5b816002600060015481526020019081526020016000206000019080519060200190610777929190610988565b508060026000600154815260200190815260200160002060010190805190602001906107a4929190610988565b5060015460026000600154815260200190815260200160002060030181905550600060026000600154815260200190815260200160002060020181905550600160008154809291906107f5906110fe565b91905055505050565b600260205280600052604060002060009150905080600001805461082190611175565b80601f016020809104026020016040519081016040528092919081815260200182805461084d90611175565b801561089a5780601f1061086f5761010080835404028352916020019161089a565b820191906000526020600020905b81548152906001019060200180831161087d57829003601f168201915b5050505050908060010180546108af90611175565b80601f01602080910402602001604051908101604052809291908181526020018280546108db90611175565b80156109285780601f106108fd57610100808354040283529160200191610928565b820191906000526020600020905b81548152906001019060200180831161090b57829003601f168201915b5050505050908060020154908060030154905084565b60036020528060005260406000206000915054906101000a900460ff1681565b565b6040518060800160405280606081526020016060815260200160008152602001600081525090565b82805461099490611175565b90600052602060002090601f0160209004810192826109b657600085556109fd565b82601f106109cf57805160ff19168380011785556109fd565b828001600101855582156109fd579182015b828111156109fc5782518255916020019190600101906109e1565b5b509050610a0a9190610a0e565b5090565b5b80821115610a27576000816000905550600101610a0f565b5090565b6000604051905090565b600080fd5b600080fd5b6000819050919050565b610a5281610a3f565b8114610a5d57600080fd5b50565b600081359050610a6f81610a49565b92915050565b600060208284031215610a8b57610a8a610a35565b5b6000610a9984828501610a60565b91505092915050565b600081519050919050565b600082825260208201905092915050565b60005b83811015610adc578082015181840152602081019050610ac1565b83811115610aeb576000848401525b50505050565b6000601f19601f8301169050919050565b6000610b0d82610aa2565b610b178185610aad565b9350610b27818560208601610abe565b610b3081610af1565b840191505092915050565b610b4481610a3f565b82525050565b60006080830160008301518482036000860152610b678282610b02565b91505060208301518482036020860152610b818282610b02565b9150506040830151610b966040860182610b3b565b506060830151610ba96060860182610b3b565b508091505092915050565b60006020820190508181036000830152610bce8184610b4a565b905092915050565b600080fd5b600080fd5b7f4e487b7100000000000000000000000000000000000000000000000000000000600052604160045260246000fd5b610c1882610af1565b810181811067ffffffffffffffff82111715610c3757610c36610be0565b5b80604052505050565b6000610c4a610a2b565b9050610c568282610c0f565b919050565b600067ffffffffffffffff821115610c7657610c75610be0565b5b610c7f82610af1565b9050602081019050919050565b82818337600083830152505050565b6000610cae610ca984610c5b565b610c40565b905082815260208101848484011115610cca57610cc9610bdb565b5b610cd5848285610c8c565b509392505050565b600082601f830112610cf257610cf1610bd6565b5b8135610d02848260208601610c9b565b91505092915050565b60008060408385031215610d2257610d21610a35565b5b600083013567ffffffffffffffff811115610d4057610d3f610a3a565b5b610d4c85828601610cdd565b925050602083013567ffffffffffffffff811115610d6d57610d6c610a3a565b5b610d7985828601610cdd565b9150509250929050565b600082825260208201905092915050565b6000610d9f82610aa2565b610da98185610d83565b9350610db9818560208601610abe565b610dc281610af1565b840191505092915050565b610dd681610a3f565b82525050565b60006080820190508181036000830152610df68187610d94565b90508181036020830152610e0a8186610d94565b9050610e196040830185610dcd565b610e266060830184610dcd565b95945050505050565b600073ffffffffffffffffffffffffffffffffffffffff82169050919050565b6000610e5a82610e2f565b9050919050565b610e6a81610e4f565b8114610e7557600080fd5b50565b600081359050610e8781610e61565b92915050565b600060208284031215610ea357610ea2610a35565b5b6000610eb184828501610e78565b91505092915050565b60008115159050919050565b610ecf81610eba565b82525050565b6000602082019050610eea6000830184610ec6565b92915050565b7f4e487b7100000000000000000000000000000000000000000000000000000000600052602160045260246000fd5b7f766f74696e67206973206e6f7420796574207374617274640000000000000000600082015250565b6000610f55601883610d83565b9150610f6082610f1f565b602082019050919050565b60006020820190508181036000830152610f8481610f48565b9050919050565b7f766f74696e67206973206f766572000000000000000000000000000000000000600082015250565b6000610fc1600e83610d83565b9150610fcc82610f8b565b602082019050919050565b60006020820190508181036000830152610ff081610fb4565b9050919050565b7f566f7465722068617320616c726561647920566f746564210000000000000000600082015250565b600061102d601883610d83565b915061103882610ff7565b602082019050919050565b6000602082019050818103600083015261105c81611020565b9050919050565b7f496e76616c69642063616e64696461746520746f20566f746521000000000000600082015250565b6000611099601a83610d83565b91506110a482611063565b602082019050919050565b600060208201905081810360008301526110c88161108c565b9050919050565b7f4e487b7100000000000000000000000000000000000000000000000000000000600052601160045260246000fd5b600061110982610a3f565b91507fffffffffffffffffffffffffffffffffffffffffffffffffffffffffffffffff820361113b5761113a6110cf565b5b600182019050919050565b7f4e487b7100000000000000000000000000000000000000000000000000000000600052602260045260246000fd5b6000600282049050600182168061118d57607f821691505b6020821081036111a05761119f611146565b5b50919050565b7f63616e64696461746520726567697374726174696f6e206973206f7665720000600082015250565b60006111dc601e83610d83565b91506111e7826111a6565b602082019050919050565b6000602082019050818103600083015261120b816111cf565b905091905056fea26469706673582212204e7c628ddd94aa01e111530e26490bc691deae2d65521b10eacc1591936ba01464736f6c634300080d0033a2646970667358221220ffc532bb26f328df846682ecea379f5bd7f293899659d3b3e136504ccf93e32d64736f6c634300080d0033",
  "immutableReferences": {},
  "source": "// SPDX-License-Identifier: MIT\npragma solidity ^0.8.0;\nimport \"./Election.sol\";\n\ncontract ECA {\n    //     struct ECA_Details{\n    //         string state;\n    //     }\n    //     mapping(address=>ECA_Details) public eca;\n    //  write now mapping with account addresss in future we try to make new uuid with biometrics and accountAddress\n    mapping(address => bool) private eca;\n    address[] public votingBooth;\n    address[] public Elections;\n\n    // struct removeRequest{\n    //     address ecaAccount;\n    //     address requestBy;\n    //     string reason;\n    // }\n\n    constructor(address[] memory _ecaAccounts) {\n        for (uint256 i = 0; i < _ecaAccounts.length; i++) {\n            eca[_ecaAccounts[i]] = true;\n        }\n        eca[msg.sender] = true;\n    }\n\n    // modifier to check same as isECA() function\n    modifier onlyECA() {\n        require(isECA(), \"only accessible to eca\");\n        _;\n    }\n\n    // this function is check if transaction sender is eca or not\n    function isECA() public view returns (bool) {\n        return eca[msg.sender];\n    }\n\n    /*\n        this function is use to remove eca from system,\n        remover of eca will only be valid if 85% voted against it otherwise not.\n    */\n    function removeECA(address _ecaAddress) public onlyECA {\n        delete eca[_ecaAddress];\n    }\n\n    /*\n        this function is use to add eca from system,\n        addition of eca will only be valid if 90% voted for the eca otherwise not.\n    */\n    function addECA(address _eca) public onlyECA {\n        eca[_eca] = true;\n    }\n\n    /*\n        this function is use to transfer eca ownership to other.\n        ownership transfer only be valid if 90% voted for the migration otherwise not.\n    */\n    function ecaTransferTO(address _to) public onlyECA {\n        eca[_to] = true;\n        delete eca[msg.sender];\n    }\n\n    /*\n        this function is use to create new election and\n        new deployed election contract address will be stored in Election array\n    */\n    function createElection() public onlyECA {\n        Election newElection = new Election();\n        Elections.push(address(newElection));\n    }\n}\n",
  "sourcePath": "/mnt/d/BlockChain/Ethereum/eVoting/contracts/ECA.sol",
  "compiler": {
    "name": "solc",
    "version": "0.8.13+commit.abaa5c0e.Emscripten.clang"
  },
  "schemaVersion": "3.4.7",
  "updatedAt": "2022-04-25T13:31:57.844Z",
  "devdoc": {
    "kind": "dev",
    "methods": {},
    "version": 1
  },
  "userdoc": {
    "kind": "user",
    "methods": {},
    "version": 1
  }
}