{
  "contractName": "Election",
  "abi": [
    {
      "inputs": [],
      "stateMutability": "nonpayable",
      "type": "constructor"
    },
    {
      "inputs": [
        {
          "internalType": "uint256",
          "name": "",
          "type": "uint256"
        }
      ],
      "name": "Candidates",
      "outputs": [
        {
          "internalType": "string",
          "name": "candidateName",
          "type": "string"
        },
        {
          "internalType": "string",
          "name": "partyName",
          "type": "string"
        },
        {
          "internalType": "uint256",
          "name": "voteCount",
          "type": "uint256"
        },
        {
          "internalType": "uint256",
          "name": "id",
          "type": "uint256"
        }
      ],
      "stateMutability": "view",
      "type": "function"
    },
    {
      "inputs": [
        {
          "internalType": "address",
          "name": "",
          "type": "address"
        }
      ],
      "name": "voters",
      "outputs": [
        {
          "internalType": "bool",
          "name": "",
          "type": "bool"
        }
      ],
      "stateMutability": "view",
      "type": "function"
    },
    {
      "inputs": [
        {
          "internalType": "string",
          "name": "candidateName",
          "type": "string"
        },
        {
          "internalType": "string",
          "name": "partyName",
          "type": "string"
        }
      ],
      "name": "addCandidate",
      "outputs": [],
      "stateMutability": "nonpayable",
      "type": "function"
    },
    {
      "inputs": [],
      "name": "getCandidates",
      "outputs": [
        {
          "components": [
            {
              "internalType": "string",
              "name": "candidateName",
              "type": "string"
            },
            {
              "internalType": "string",
              "name": "partyName",
              "type": "string"
            },
            {
              "internalType": "uint256",
              "name": "voteCount",
              "type": "uint256"
            },
            {
              "internalType": "uint256",
              "name": "id",
              "type": "uint256"
            }
          ],
          "internalType": "struct Election.Candidate",
          "name": "",
          "type": "tuple"
        }
      ],
      "stateMutability": "view",
      "type": "function"
    },
    {
      "inputs": [
        {
          "internalType": "uint256",
          "name": "_candidate",
          "type": "uint256"
        }
      ],
      "name": "vote",
      "outputs": [],
      "stateMutability": "nonpayable",
      "type": "function"
    },
    {
      "inputs": [],
      "name": "tallyVote",
      "outputs": [],
      "stateMutability": "nonpayable",
      "type": "function"
    },
    {
      "inputs": [],
      "name": "declareWinner",
      "outputs": [
        {
          "components": [
            {
              "internalType": "string",
              "name": "candidateName",
              "type": "string"
            },
            {
              "internalType": "string",
              "name": "partyName",
              "type": "string"
            },
            {
              "internalType": "uint256",
              "name": "voteCount",
              "type": "uint256"
            },
            {
              "internalType": "uint256",
              "name": "id",
              "type": "uint256"
            }
          ],
          "internalType": "struct Election.Candidate",
          "name": "",
          "type": "tuple"
        }
      ],
      "stateMutability": "view",
      "type": "function"
    }
  ],
  "bytecode": "0x608060405234801561001057600080fd5b5033600460006101000a81548173ffffffffffffffffffffffffffffffffffffffff021916908373ffffffffffffffffffffffffffffffffffffffff16021790555060008060006101000a81548160ff0219169083600381111561007757610076610081565b5b02179055506100b0565b7f4e487b7100000000000000000000000000000000000000000000000000000000600052602160045260246000fd5b611248806100bf6000396000f3fe608060405234801561001057600080fd5b506004361061007d5760003560e01c806326541b561161005b57806326541b56146100da578063290e9212146100f6578063a3ec138d14610129578063c7bedfa0146101595761007d565b80630121b93f1461008257806306a49fce1461009e57806314034bd2146100bc575b600080fd5b61009c60048036038101906100979190610a75565b610163565b005b6100a66103b0565b6040516100b39190610bb4565b60405180910390f35b6100c4610513565b6040516100d19190610bb4565b60405180910390f35b6100f460048036038101906100ef9190610d0b565b6106d7565b005b610110600480360381019061010b9190610a75565b6107fe565b6040516101209493929190610ddc565b60405180910390f35b610143600480360381019061013e9190610e8d565b61093e565b6040516101509190610ed5565b60405180910390f35b61016161095e565b005b6001600381111561017757610176610ef0565b5b60008054906101000a900460ff16600381111561019757610196610ef0565b5b106101d7576040517f08c379a00000000000000000000000000000000000000000000000000000000081526004016101ce90610f6b565b60405180910390fd5b600160038111156101eb576101ea610ef0565b5b60008054906101000a900460ff16600381111561020b5761020a610ef0565b5b1161024b576040517f08c379a000000000000000000000000000000000000000000000000000000000815260040161024290610fd7565b60405180910390fd5b600360003373ffffffffffffffffffffffffffffffffffffffff1673ffffffffffffffffffffffffffffffffffffffff16815260200190815260200160002060009054906101000a900460ff16156102d8576040517f08c379a00000000000000000000000000000000000000000000000000000000081526004016102cf90611043565b60405180910390fd5b600154811080156102ea575060008110155b610329576040517f08c379a0000000000000000000000000000000000000000000000000000000008152600401610320906110af565b60405180910390fd5b6001600360003373ffffffffffffffffffffffffffffffffffffffff1673ffffffffffffffffffffffffffffffffffffffff16815260200190815260200160002060006101000a81548160ff0219169083151502179055506002600082815260200190815260200160002060020160008154809291906103a8906110fe565b919050555050565b6103b8610960565b600260008081526020019081526020016000206040518060800160405290816000820180546103e690611175565b80601f016020809104026020016040519081016040528092919081815260200182805461041290611175565b801561045f5780601f106104345761010080835404028352916020019161045f565b820191906000526020600020905b81548152906001019060200180831161044257829003601f168201915b5050505050815260200160018201805461047890611175565b80601f01602080910402602001604051908101604052809291908181526020018280546104a490611175565b80156104f15780601f106104c6576101008083540402835291602001916104f1565b820191906000526020600020905b8154815290600101906020018083116104d457829003601f168201915b5050505050815260200160028201548152602001600382015481525050905090565b61051b610960565b60008060005b60015481101561057957816002600083815260200190815260200160002060020154111561056657600260008281526020019081526020016000206002015491508092505b8080610571906110fe565b915050610521565b50600260008381526020019081526020016000206040518060800160405290816000820180546105a890611175565b80601f01602080910402602001604051908101604052809291908181526020018280546105d490611175565b80156106215780601f106105f657610100808354040283529160200191610621565b820191906000526020600020905b81548152906001019060200180831161060457829003601f168201915b5050505050815260200160018201805461063a90611175565b80601f016020809104026020016040519081016040528092919081815260200182805461066690611175565b80156106b35780601f10610688576101008083540402835291602001916106b3565b820191906000526020600020905b81548152906001019060200180831161069657829003601f168201915b50505050508152602001600282015481526020016003820154815250509250505090565b600060038111156106eb576106ea610ef0565b5b60008054906101000a900460ff16600381111561070b5761070a610ef0565b5b1461074b576040517f08c379a0000000000000000000000000000000000000000000000000000000008152600401610742906111f2565b60405180910390fd5b816002600060015481526020019081526020016000206000019080519060200190610777929190610988565b508060026000600154815260200190815260200160002060010190805190602001906107a4929190610988565b5060015460026000600154815260200190815260200160002060030181905550600060026000600154815260200190815260200160002060020181905550600160008154809291906107f5906110fe565b91905055505050565b600260205280600052604060002060009150905080600001805461082190611175565b80601f016020809104026020016040519081016040528092919081815260200182805461084d90611175565b801561089a5780601f1061086f5761010080835404028352916020019161089a565b820191906000526020600020905b81548152906001019060200180831161087d57829003601f168201915b5050505050908060010180546108af90611175565b80601f01602080910402602001604051908101604052809291908181526020018280546108db90611175565b80156109285780601f106108fd57610100808354040283529160200191610928565b820191906000526020600020905b81548152906001019060200180831161090b57829003601f168201915b5050505050908060020154908060030154905084565b60036020528060005260406000206000915054906101000a900460ff1681565b565b6040518060800160405280606081526020016060815260200160008152602001600081525090565b82805461099490611175565b90600052602060002090601f0160209004810192826109b657600085556109fd565b82601f106109cf57805160ff19168380011785556109fd565b828001600101855582156109fd579182015b828111156109fc5782518255916020019190600101906109e1565b5b509050610a0a9190610a0e565b5090565b5b80821115610a27576000816000905550600101610a0f565b5090565b6000604051905090565b600080fd5b600080fd5b6000819050919050565b610a5281610a3f565b8114610a5d57600080fd5b50565b600081359050610a6f81610a49565b92915050565b600060208284031215610a8b57610a8a610a35565b5b6000610a9984828501610a60565b91505092915050565b600081519050919050565b600082825260208201905092915050565b60005b83811015610adc578082015181840152602081019050610ac1565b83811115610aeb576000848401525b50505050565b6000601f19601f8301169050919050565b6000610b0d82610aa2565b610b178185610aad565b9350610b27818560208601610abe565b610b3081610af1565b840191505092915050565b610b4481610a3f565b82525050565b60006080830160008301518482036000860152610b678282610b02565b91505060208301518482036020860152610b818282610b02565b9150506040830151610b966040860182610b3b565b506060830151610ba96060860182610b3b565b508091505092915050565b60006020820190508181036000830152610bce8184610b4a565b905092915050565b600080fd5b600080fd5b7f4e487b7100000000000000000000000000000000000000000000000000000000600052604160045260246000fd5b610c1882610af1565b810181811067ffffffffffffffff82111715610c3757610c36610be0565b5b80604052505050565b6000610c4a610a2b565b9050610c568282610c0f565b919050565b600067ffffffffffffffff821115610c7657610c75610be0565b5b610c7f82610af1565b9050602081019050919050565b82818337600083830152505050565b6000610cae610ca984610c5b565b610c40565b905082815260208101848484011115610cca57610cc9610bdb565b5b610cd5848285610c8c565b509392505050565b600082601f830112610cf257610cf1610bd6565b5b8135610d02848260208601610c9b565b91505092915050565b60008060408385031215610d2257610d21610a35565b5b600083013567ffffffffffffffff811115610d4057610d3f610a3a565b5b610d4c85828601610cdd565b925050602083013567ffffffffffffffff811115610d6d57610d6c610a3a565b5b610d7985828601610cdd565b9150509250929050565b600082825260208201905092915050565b6000610d9f82610aa2565b610da98185610d83565b9350610db9818560208601610abe565b610dc281610af1565b840191505092915050565b610dd681610a3f565b82525050565b60006080820190508181036000830152610df68187610d94565b90508181036020830152610e0a8186610d94565b9050610e196040830185610dcd565b610e266060830184610dcd565b95945050505050565b600073ffffffffffffffffffffffffffffffffffffffff82169050919050565b6000610e5a82610e2f565b9050919050565b610e6a81610e4f565b8114610e7557600080fd5b50565b600081359050610e8781610e61565b92915050565b600060208284031215610ea357610ea2610a35565b5b6000610eb184828501610e78565b91505092915050565b60008115159050919050565b610ecf81610eba565b82525050565b6000602082019050610eea6000830184610ec6565b92915050565b7f4e487b7100000000000000000000000000000000000000000000000000000000600052602160045260246000fd5b7f766f74696e67206973206e6f7420796574207374617274640000000000000000600082015250565b6000610f55601883610d83565b9150610f6082610f1f565b602082019050919050565b60006020820190508181036000830152610f8481610f48565b9050919050565b7f766f74696e67206973206f766572000000000000000000000000000000000000600082015250565b6000610fc1600e83610d83565b9150610fcc82610f8b565b602082019050919050565b60006020820190508181036000830152610ff081610fb4565b9050919050565b7f566f7465722068617320616c726561647920566f746564210000000000000000600082015250565b600061102d601883610d83565b915061103882610ff7565b602082019050919050565b6000602082019050818103600083015261105c81611020565b9050919050565b7f496e76616c69642063616e64696461746520746f20566f746521000000000000600082015250565b6000611099601a83610d83565b91506110a482611063565b602082019050919050565b600060208201905081810360008301526110c88161108c565b9050919050565b7f4e487b7100000000000000000000000000000000000000000000000000000000600052601160045260246000fd5b600061110982610a3f565b91507fffffffffffffffffffffffffffffffffffffffffffffffffffffffffffffffff820361113b5761113a6110cf565b5b600182019050919050565b7f4e487b7100000000000000000000000000000000000000000000000000000000600052602260045260246000fd5b6000600282049050600182168061118d57607f821691505b6020821081036111a05761119f611146565b5b50919050565b7f63616e64696461746520726567697374726174696f6e206973206f7665720000600082015250565b60006111dc601e83610d83565b91506111e7826111a6565b602082019050919050565b6000602082019050818103600083015261120b816111cf565b905091905056fea26469706673582212204e7c628ddd94aa01e111530e26490bc691deae2d65521b10eacc1591936ba01464736f6c634300080d0033",
  "immutableReferences": {},
  "source": "// SPDX-License-Identifier: MIT\npragma solidity ^0.8.0;\nimport \"./Voter.sol\";\n\ncontract Election {\n    enum STAGE {\n        CANDITATE_REGISTRATION,\n        VOTING,\n        TALLYING,\n        WINNER_DECLARATION\n    }\n    struct Candidate {\n        string candidateName;\n        string partyName;\n        uint256 voteCount;\n        uint256 id;\n    }\n    STAGE stage;\n    uint256 candidatesCount;\n    // Candidate[] public Candidates;\n    mapping(uint256 => Candidate) public Candidates;\n    mapping(address => bool) public voters;\n\n    address hostedBy;\n\n    constructor() {\n        hostedBy = msg.sender;\n        stage = STAGE.CANDITATE_REGISTRATION;\n    }\n\n    // only by eca here\n    function addCandidate(string memory candidateName, string memory partyName)\n        public\n    {\n        require(\n            stage == STAGE.CANDITATE_REGISTRATION,\n            \"candidate registration is over\"\n        );\n        Candidates[candidatesCount].candidateName = candidateName;\n        Candidates[candidatesCount].partyName = partyName;\n        Candidates[candidatesCount].id = candidatesCount;\n        Candidates[candidatesCount].voteCount = 0;\n        candidatesCount++;\n    }\n\n    // yet to implement this\n    function getCandidates() public view returns (Candidate memory) {\n        return Candidates[0];\n    }\n\n    function vote(uint256 _candidate) public {\n        require(stage < STAGE.VOTING, \"voting is not yet startd\");\n        require(stage > STAGE.VOTING, \"voting is over\");\n        require(!voters[msg.sender], \"Voter has already Voted!\");\n        require(\n            _candidate < candidatesCount && _candidate >= 0,\n            \"Invalid candidate to Vote!\"\n        );\n        voters[msg.sender] = true;\n        Candidates[_candidate].voteCount++;\n    }\n\n    /*\n        this function will be use if we use concept of secret key for voters, \n        vote can only be decrypt if user reveals secret key\n    */\n    function tallyVote() public {}\n\n    function declareWinner() public view returns (Candidate memory) {\n        uint256 winnerId = 0;\n        uint256 maxVoteCount = 0;\n        for (uint256 i = 0; i < candidatesCount; i++) {\n            if (Candidates[i].voteCount > maxVoteCount) {\n                maxVoteCount = Candidates[i].voteCount;\n                winnerId = i;\n            }\n        }\n        return Candidates[winnerId];\n    }\n}\n",
  "sourcePath": "/mnt/d/BlockChain/Ethereum/eVoting/contracts/Election.sol",
  "compiler": {
    "name": "solc",
    "version": "0.8.13+commit.abaa5c0e.Emscripten.clang"
  },
  "schemaVersion": "3.4.7",
  "updatedAt": "2022-04-25T13:31:57.853Z",
  "devdoc": {
    "kind": "dev",
    "methods": {},
    "version": 1
  },
  "userdoc": {
    "kind": "user",
    "methods": {},
    "version": 1
  }
}