{
  "contractName": "Voter",
  "abi": [
    {
      "inputs": [
        {
          "internalType": "uint32",
          "name": "_minimumAge",
          "type": "uint32"
        }
      ],
      "stateMutability": "nonpayable",
      "type": "constructor"
    },
    {
      "inputs": [
        {
          "internalType": "uint256",
          "name": "",
          "type": "uint256"
        }
      ],
      "name": "voter",
      "outputs": [
        {
          "internalType": "address",
          "name": "",
          "type": "address"
        }
      ],
      "stateMutability": "view",
      "type": "function"
    },
    {
      "inputs": [
        {
          "internalType": "uint256",
          "name": "_aadharNumber",
          "type": "uint256"
        },
        {
          "internalType": "address",
          "name": "_address",
          "type": "address"
        }
      ],
      "name": "addVoter",
      "outputs": [],
      "stateMutability": "nonpayable",
      "type": "function"
    },
    {
      "inputs": [
        {
          "internalType": "uint256",
          "name": "_aadharNumber",
          "type": "uint256"
        }
      ],
      "name": "isVoter",
      "outputs": [
        {
          "internalType": "bool",
          "name": "",
          "type": "bool"
        }
      ],
      "stateMutability": "view",
      "type": "function"
    }
  ],
  "bytecode": "0x608060405234801561001057600080fd5b506040516105543803806105548339818101604052810190610032919061009a565b80600160006101000a81548163ffffffff021916908363ffffffff160217905550506100c7565b600080fd5b600063ffffffff82169050919050565b6100778161005e565b811461008257600080fd5b50565b6000815190506100948161006e565b92915050565b6000602082840312156100b0576100af610059565b5b60006100be84828501610085565b91505092915050565b61047e806100d66000396000f3fe608060405234801561001057600080fd5b50600436106100415760003560e01c806309391321146100465780635ce71b7214610062578063ab8ed1ba14610092575b600080fd5b610060600480360381019061005b91906102fe565b6100c2565b005b61007c6004803603810190610077919061033e565b6101b8565b6040516100899190610386565b60405180910390f35b6100ac60048036038101906100a7919061033e565b610232565b6040516100b991906103b0565b60405180910390f35b600073ffffffffffffffffffffffffffffffffffffffff1660008084815260200190815260200160002060009054906101000a900473ffffffffffffffffffffffffffffffffffffffff1673ffffffffffffffffffffffffffffffffffffffff1614610163576040517f08c379a000000000000000000000000000000000000000000000000000000000815260040161015a90610428565b60405180910390fd5b8060008084815260200190815260200160002060006101000a81548173ffffffffffffffffffffffffffffffffffffffff021916908373ffffffffffffffffffffffffffffffffffffffff1602179055505050565b60008073ffffffffffffffffffffffffffffffffffffffff1660008084815260200190815260200160002060009054906101000a900473ffffffffffffffffffffffffffffffffffffffff1673ffffffffffffffffffffffffffffffffffffffff1603610228576000905061022d565b600190505b919050565b60006020528060005260406000206000915054906101000a900473ffffffffffffffffffffffffffffffffffffffff1681565b600080fd5b6000819050919050565b61027d8161026a565b811461028857600080fd5b50565b60008135905061029a81610274565b92915050565b600073ffffffffffffffffffffffffffffffffffffffff82169050919050565b60006102cb826102a0565b9050919050565b6102db816102c0565b81146102e657600080fd5b50565b6000813590506102f8816102d2565b92915050565b6000806040838503121561031557610314610265565b5b60006103238582860161028b565b9250506020610334858286016102e9565b9150509250929050565b60006020828403121561035457610353610265565b5b60006103628482850161028b565b91505092915050565b60008115159050919050565b6103808161036b565b82525050565b600060208201905061039b6000830184610377565b92915050565b6103aa816102c0565b82525050565b60006020820190506103c560008301846103a1565b92915050565b600082825260208201905092915050565b7f766f74657220616c726561647920657869737400000000000000000000000000600082015250565b60006104126013836103cb565b915061041d826103dc565b602082019050919050565b6000602082019050818103600083015261044181610405565b905091905056fea264697066735822122039797a64ce1c7079235262f68433c7c179a3f23eb0c8686e608225c4fccb185b64736f6c634300080d0033",
  "immutableReferences": {},
  "source": "// SPDX-License-Identifier: MIT\npragma solidity ^0.8.0;\n\ncontract Voter {\n    // aadhar number -> fingerPrint\n    mapping(uint256 => address) public voter;\n    uint32 minimumAge;\n\n    constructor(uint32 _minimumAge) {\n        minimumAge = _minimumAge;\n    }\n\n    modifier verifyBiometrics() {\n        // to be implement in future work\n        _;\n    }\n\n    function addVoter(uint256 _aadharNumber, address _address) public {\n        require(\n            address(voter[_aadharNumber]) == address(0),\n            \"voter already exist\"\n        );\n        // verify from government server and then add voter\n        voter[_aadharNumber] = _address;\n    }\n\n    modifier onlyVoter(uint256 _aadharNumber) {\n        require(isVoter(_aadharNumber), \"action allowed to voter only\");\n        _;\n    }\n\n    function isVoter(uint256 _aadharNumber) public view returns (bool) {\n        if (address(voter[_aadharNumber]) == address(0)) return false;\n        return true;\n    }\n}\n",
  "sourcePath": "/mnt/d/BlockChain/Ethereum/eVoting/contracts/Voter.sol",
  "compiler": {
    "name": "solc",
    "version": "0.8.13+commit.abaa5c0e.Emscripten.clang"
  },
  "schemaVersion": "3.4.7",
  "updatedAt": "2022-04-25T13:31:57.869Z",
  "devdoc": {
    "kind": "dev",
    "methods": {},
    "version": 1
  },
  "userdoc": {
    "kind": "user",
    "methods": {},
    "version": 1
  }
}